:020000001628C0
:0E0006008312031327088A00260882000800D0
:1000140003208A110A128000840AA60A0319A70A77
:08002400F003031D0A28080087
:10002C0083120313A001A101A201A301A401A50144
:10003C008316031788018901031387018801850141
:10004C0001308600831220082E3EF0000330031886
:10005C00013E2107F1007008A6007108A7000320DB
:10006C008A110A128700860122082E3EF000033006
:10007C000318013E2307F1007008A6007108A700C1
:10008C0003208A110A12880024082E3EF000033047
:10009C000318013E2507F1007008A6007108A7009F
:1000AC0003208A110A128500202B02302007F10050
:1000BC0021080318013EF2007108A0007208A1008B
:1000CC0000307206031D6C280A307106031DC0280F
:1000DC00A001A10120082E3EF00003300318013EC0
:1000EC002107F1007008A6007108A70003208A11EF
:1000FC000A128700A20A0319A30A8030F00080308C
:10010C0023067002031D8C282208093C0318B3280F
:10011C00A201A30122082E3EF00003300318013E79
:10012C002307F1007008A6007108A70003208A11AC
:10013C000A128800A40A0319A50A24082E3EF0000E
:10014C0003300318013E2507F1007008A600710862
:10015C00A70003208A110A1285000230FB008630AA
:10016C00FC009930FD00FD0BB928FC0BB928FB0BEA
:10017C00B9282C2B00302106031DC6280B30200675
:10018C00031D1C290130A0000030A10020082E3EC8
:10019C00F00003300318013E2107F1007008A6009F
:1001AC007108A70003208A110A128700A20A0319FA
:1001BC00A30A8030F000803023067002031DE8286B
:1001CC002208093C03180F29A201A30122082E3E84
:1001DC00F00003300318013E2307F1007008A6005D
:1001EC007108A70003208A110A128800A40A0319B7
:1001FC00A50A24082E3EF00003300318013E250703
:10020C00F1007008A6007108A70003208A110A12D9
:10021C0085000230FB008630FC009930FD00FD0BA0
:10022C001529FC0B1529FB0B15292C2B20082E3E10
:10023C00F00003300318013E2107F1007008A600FE
:10024C007108A70003208A110A12870022082E3E8B
:10025C00F00003300318013E2307F1007008A600DC
:10026C007108A70003208A110A1288000230FB00D3
:10027C008630FC009930FD00FD0B4229FC0B422915
:10028C00FB0B42292C2B03302007F100210803180B
:10029C00013EF2007108A0007208A1000030720645
:1002AC00031D5A290A307106031DAE29A001A101B4
:1002BC0020082E3EF00003300318013E2107F10008
:1002CC007008A6007108A70003208A110A12870083
:1002DC00A20A0319A30A8030F000803023067002B2
:1002EC00031D7A292208093C0318A129A201A301A4
:1002FC0022082E3EF00003300318013E2307F100C4
:10030C007008A6007108A70003208A110A12880041
:10031C00A40A0319A50A24082E3EF0000330031882
:10032C00013E2507F1007008A6007108A700032004
:10033C008A110A1285000230FB008630FC009930CD
:10034C00FD00FD0BA729FC0BA729FB0BA7292C2BC8
:10035C0000302106031DB4290B302006031D0A2A88
:10036C000130A0000030A10020082E3EF000033028
:10037C000318013E2107F1007008A6007108A700C0
:10038C0003208A110A128700A20A0319A30A8030DB
:10039C00F000803023067002031DD6292208093C88
:1003AC000318FD29A201A30122082E3EF000033000
:1003BC000318013E2307F1007008A6007108A7007E
:1003CC0003208A110A128800A40A0319A50A24081A
:1003DC002E3EF00003300318013E2507F100700893
:1003EC00A6007108A70003208A110A1285000230AA
:1003FC00FB008630FC009930FD00FD0B032AFC0B42
:10040C00032AFB0B032A2C2B00302106031D102A78
:10041C000C302006031D662A0230A0000030A1001B
:10042C0020082E3EF00003300318013E2107F10096
:10043C007008A6007108A70003208A110A12870011
:10044C00A20A0319A30A8030F00080302306700240
:10045C00031D322A2208093C0318592AA201A301C0
:10046C0022082E3EF00003300318013E2307F10052
:10047C007008A6007108A70003208A110A128800D0
:10048C00A40A0319A50A24082E3EF0000330031811
:10049C00013E2507F1007008A6007108A700032093
:1004AC008A110A1285000230FB008630FC0099305C
:1004BC00FD00FD0B5F2AFC0B5F2AFB0B5F2A2C2B2C
:1004CC0020082E3EF00003300318013E2107F100F6
:1004DC007008A6007108A70003208A110A12870071
:1004EC0022082E3EF00003300318013E2307F100D2
:1004FC007008A6007108A70003208A110A12880050
:10050C000230FB008630FC009930FD00FD0B8C2A7C
:10051C00FC0B8C2AFB0B8C2A2C2BA00A0319A10A8E
:10052C008030F000803021067002031D9F2A2008C5
:10053C00093C0318F32AA001A10120082E3EF0006B
:10054C0003300318013E2107F1007008A600710862
:10055C00A70003208A110A128700A20A0319A30A12
:10056C008030F000803023067002031DBF2A220861
:10057C00093C0318E62AA201A30122082E3EF00032
:10058C0003300318013E2307F1007008A600710820
:10059C00A70003208A110A128800A40A0319A50ACD
:1005AC0024082E3EF00003300318013E2507F1000D
:1005BC007008A6007108A70003208A110A12850092
:1005CC000230FB008630FC009930FD00FD0BEC2A5C
:1005DC00FC0BEC2AFB0BEC2A2C2B20082E3EF000FB
:1005EC0003300318013E2107F1007008A6007108C2
:1005FC00A70003208A110A12870022082E3EF00061
:10060C0003300318013E2307F1007008A60071089F
:10061C00A70003208A110A1288000230FB008630E2
:10062C00FC009930FD00FD0B192BFC0B192BFB0B5F
:10063C00192B2C2B0608023A03195B280608043ADE
:10064C00031949290608083A0319932A28282D2B3F
:10065C003F3406345B344F3466346D347D340734A8
:04066C007F346F3434
:04400E00D2230007B2
:00000001FF
